{
  "_format": "hh-sol-artifact-1",
  "contractName": "Dex",
  "sourceName": "contracts/DEXContract.sol",
  "abi": [
    {
      "anonymous": false,
      "inputs": [
        {
          "indexed": true,
          "internalType": "uint256",
          "name": "_depositId",
          "type": "uint256"
        },
        {
          "indexed": true,
          "internalType": "uint256",
          "name": "_rate",
          "type": "uint256"
        }
      ],
      "name": "BuyPartialOrder",
      "type": "event"
    },
    {
      "anonymous": false,
      "inputs": [
        {
          "indexed": true,
          "internalType": "uint256",
          "name": "_depositId",
          "type": "uint256"
        },
        {
          "indexed": false,
          "internalType": "address",
          "name": "_seller",
          "type": "address"
        },
        {
          "indexed": true,
          "internalType": "contract IERC20",
          "name": "_sellerTokenAddress",
          "type": "address"
        },
        {
          "indexed": false,
          "internalType": "address",
          "name": "_buyer",
          "type": "address"
        },
        {
          "indexed": true,
          "internalType": "contract IERC20",
          "name": "_buyerTokenAddress",
          "type": "address"
        },
        {
          "indexed": false,
          "internalType": "uint256",
          "name": "sellerAmount",
          "type": "uint256"
        },
        {
          "indexed": false,
          "internalType": "uint256",
          "name": "buyerAmount",
          "type": "uint256"
        },
        {
          "indexed": false,
          "internalType": "uint256",
          "name": "time",
          "type": "uint256"
        }
      ],
      "name": "ClaimOrder",
      "type": "event"
    },
    {
      "anonymous": false,
      "inputs": [
        {
          "indexed": true,
          "internalType": "uint256",
          "name": "_depositId",
          "type": "uint256"
        },
        {
          "indexed": false,
          "internalType": "uint256",
          "name": "_sellerAmount",
          "type": "uint256"
        },
        {
          "indexed": true,
          "internalType": "contract IERC20",
          "name": "_sellerTokenAddress",
          "type": "address"
        },
        {
          "indexed": false,
          "internalType": "uint256",
          "name": "_buyerAmount",
          "type": "uint256"
        },
        {
          "indexed": true,
          "internalType": "contract IERC20",
          "name": "_buyerTokenAddress",
          "type": "address"
        },
        {
          "indexed": false,
          "internalType": "uint256",
          "name": "time",
          "type": "uint256"
        }
      ],
      "name": "DepositCreated",
      "type": "event"
    },
    {
      "anonymous": false,
      "inputs": [
        {
          "indexed": true,
          "internalType": "uint256",
          "name": "_depositId",
          "type": "uint256"
        },
        {
          "indexed": false,
          "internalType": "uint256",
          "name": "_sellerAmount",
          "type": "uint256"
        },
        {
          "indexed": true,
          "internalType": "contract IERC20",
          "name": "_sellerTokenAddress",
          "type": "address"
        },
        {
          "indexed": false,
          "internalType": "uint256",
          "name": "_buyerAmount",
          "type": "uint256"
        },
        {
          "indexed": true,
          "internalType": "contract IERC20",
          "name": "_buyerTokenAddress",
          "type": "address"
        },
        {
          "indexed": false,
          "internalType": "uint256",
          "name": "time",
          "type": "uint256"
        }
      ],
      "name": "DepositUpdated",
      "type": "event"
    },
    {
      "anonymous": false,
      "inputs": [
        {
          "indexed": true,
          "internalType": "uint256",
          "name": "_depositId",
          "type": "uint256"
        },
        {
          "indexed": false,
          "internalType": "uint256",
          "name": "_sellerAmount",
          "type": "uint256"
        },
        {
          "indexed": true,
          "internalType": "contract IERC20",
          "name": "_sellerTokenAddress",
          "type": "address"
        },
        {
          "indexed": false,
          "internalType": "uint256",
          "name": "_buyerAmount",
          "type": "uint256"
        },
        {
          "indexed": true,
          "internalType": "contract IERC20",
          "name": "_buyerTokenAddress",
          "type": "address"
        }
      ],
      "name": "RefundActiveDeposit",
      "type": "event"
    },
    {
      "inputs": [
        {
          "internalType": "uint256",
          "name": "_depositId",
          "type": "uint256"
        },
        {
          "internalType": "uint256",
          "name": "_buyerAmount",
          "type": "uint256"
        }
      ],
      "name": "buyPartialOrder",
      "outputs": [
        {
          "internalType": "uint256",
          "name": "",
          "type": "uint256"
        }
      ],
      "stateMutability": "nonpayable",
      "type": "function"
    },
    {
      "inputs": [
        {
          "internalType": "uint256",
          "name": "_depositId",
          "type": "uint256"
        }
      ],
      "name": "claimOrder",
      "outputs": [
        {
          "internalType": "uint256",
          "name": "",
          "type": "uint256"
        }
      ],
      "stateMutability": "nonpayable",
      "type": "function"
    },
    {
      "inputs": [
        {
          "internalType": "uint256",
          "name": "_sellerAmount",
          "type": "uint256"
        },
        {
          "internalType": "contract IERC20",
          "name": "_sellerTokenAddress",
          "type": "address"
        },
        {
          "internalType": "uint256",
          "name": "_buyerAmount",
          "type": "uint256"
        },
        {
          "internalType": "contract IERC20",
          "name": "_buyerTokenAddress",
          "type": "address"
        },
        {
          "internalType": "uint256",
          "name": "_validityTime",
          "type": "uint256"
        }
      ],
      "name": "createOrder",
      "outputs": [
        {
          "internalType": "uint256",
          "name": "",
          "type": "uint256"
        }
      ],
      "stateMutability": "nonpayable",
      "type": "function"
    },
    {
      "inputs": [
        {
          "internalType": "uint256",
          "name": "",
          "type": "uint256"
        }
      ],
      "name": "deposits",
      "outputs": [
        {
          "internalType": "bool",
          "name": "isActive",
          "type": "bool"
        },
        {
          "internalType": "address",
          "name": "depositAddress",
          "type": "address"
        },
        {
          "internalType": "uint256",
          "name": "sellerAmount",
          "type": "uint256"
        },
        {
          "internalType": "contract IERC20",
          "name": "sellerContractAddress",
          "type": "address"
        },
        {
          "internalType": "uint256",
          "name": "buyerAmount",
          "type": "uint256"
        },
        {
          "internalType": "contract IERC20",
          "name": "buyerContractAddress",
          "type": "address"
        },
        {
          "internalType": "uint256",
          "name": "expiryTime",
          "type": "uint256"
        },
        {
          "internalType": "uint256",
          "name": "time",
          "type": "uint256"
        }
      ],
      "stateMutability": "view",
      "type": "function"
    },
    {
      "inputs": [],
      "name": "getdeposites",
      "outputs": [
        {
          "components": [
            {
              "internalType": "bool",
              "name": "isActive",
              "type": "bool"
            },
            {
              "internalType": "address",
              "name": "depositAddress",
              "type": "address"
            },
            {
              "internalType": "uint256",
              "name": "sellerAmount",
              "type": "uint256"
            },
            {
              "internalType": "contract IERC20",
              "name": "sellerContractAddress",
              "type": "address"
            },
            {
              "internalType": "uint256",
              "name": "buyerAmount",
              "type": "uint256"
            },
            {
              "internalType": "contract IERC20",
              "name": "buyerContractAddress",
              "type": "address"
            },
            {
              "internalType": "uint256",
              "name": "expiryTime",
              "type": "uint256"
            },
            {
              "internalType": "uint256",
              "name": "time",
              "type": "uint256"
            }
          ],
          "internalType": "struct Dex.Deposit[]",
          "name": "",
          "type": "tuple[]"
        }
      ],
      "stateMutability": "view",
      "type": "function"
    },
    {
      "inputs": [
        {
          "internalType": "contract IERC20",
          "name": "_token",
          "type": "address"
        },
        {
          "internalType": "address",
          "name": "_address",
          "type": "address"
        }
      ],
      "name": "gettokenbalance",
      "outputs": [
        {
          "internalType": "uint256",
          "name": "",
          "type": "uint256"
        }
      ],
      "stateMutability": "view",
      "type": "function"
    },
    {
      "inputs": [
        {
          "internalType": "uint256",
          "name": "_depositId",
          "type": "uint256"
        }
      ],
      "name": "refundActiveDeposit",
      "outputs": [],
      "stateMutability": "nonpayable",
      "type": "function"
    },
    {
      "inputs": [
        {
          "internalType": "uint256",
          "name": "_sellerAmount",
          "type": "uint256"
        },
        {
          "internalType": "uint256",
          "name": "_buyerAmount",
          "type": "uint256"
        },
        {
          "internalType": "uint256",
          "name": "_validityTime",
          "type": "uint256"
        },
        {
          "internalType": "uint256",
          "name": "_orderId",
          "type": "uint256"
        }
      ],
      "name": "updateOrder",
      "outputs": [],
      "stateMutability": "nonpayable",
      "type": "function"
    }
  ],
  "bytecode": "0x608060405234801561001057600080fd5b5061221a806100206000396000f3fe608060405234801561001057600080fd5b50600436106100885760003560e01c806391318a6a1161005b57806391318a6a1461013b578063b02c43d014610157578063cefdb8b61461018e578063ecae1857146101aa57610088565b80633a3f82391461008d5780634b956562146100bd5780635e028a07146100ed57806373cc9a251461010b575b600080fd5b6100a760048036038101906100a29190611605565b6101da565b6040516100b49190611641565b60405180910390f35b6100d760048036038101906100d2919061165c565b610484565b6040516100e49190611641565b60405180910390f35b6100f56106e0565b60405161010291906118b8565b60405180910390f35b61012560048036038101906101209190611944565b610901565b6040516101329190611641565b60405180910390f35b61015560048036038101906101509190611605565b610985565b005b610171600480360381019061016c9190611605565b610d55565b6040516101859897969594939291906119b1565b60405180910390f35b6101a860048036038101906101a39190611a2f565b610e1a565b005b6101c460048036038101906101bf9190611a96565b611062565b6040516101d19190611641565b60405180910390f35b60008060009054906101000a900460ff161561022b576040517f08c379a000000000000000000000000000000000000000000000000000000000815260040161022290611b6e565b60405180910390fd5b60016000806101000a81548160ff02191690831515021790555060006001838154811061025b5761025a611b8e565b5b90600052602060002090600702019050428160050154116102b1576040517f08c379a00000000000000000000000000000000000000000000000000000000081526004016102a890611c09565b60405180910390fd5b60003390506000826001015490506000836003015490506102fb8460020160009054906101000a900473ffffffffffffffffffffffffffffffffffffffff163386600101546113ae565b6000846001018190555061035d8460040160009054906101000a900473ffffffffffffffffffffffffffffffffffffffff16848660000160019054906101000a900473ffffffffffffffffffffffffffffffffffffffff168760030154611476565b6000846003018190555060008460000160006101000a81548160ff0219169083151502179055508360040160009054906101000a900473ffffffffffffffffffffffffffffffffffffffff1673ffffffffffffffffffffffffffffffffffffffff168460020160009054906101000a900473ffffffffffffffffffffffffffffffffffffffff1673ffffffffffffffffffffffffffffffffffffffff16877f3935dacc876cd7ca12bc36315541fd66b192eab992cc8b076beadf3e942018b68760000160019054906101000a900473ffffffffffffffffffffffffffffffffffffffff1687878742604051610456959493929190611c29565b60405180910390a48594505050505060008060006101000a81548160ff021916908315150217905550919050565b60008060009054906101000a900460ff16156104d5576040517f08c379a00000000000000000000000000000000000000000000000000000000081526004016104cc90611b6e565b60405180910390fd5b60016000806101000a81548160ff02191690831515021790555060006001848154811061050557610504611b8e565b5b906000526020600020906007020190504281600501541161055b576040517f08c379a000000000000000000000000000000000000000000000000000000000815260040161055290611c09565b60405180910390fd5b6000339050600082600301546402540be400846001015461057c9190611cab565b6105869190611d1c565b905060006402540be400828761059c9190611cab565b6105a69190611d1c565b9050808460010160008282546105bc9190611d4d565b925050819055506105f28460020160009054906101000a900473ffffffffffffffffffffffffffffffffffffffff1633836113ae565b858460030160008282546106069190611d4d565b925050819055506106618460040160009054906101000a900473ffffffffffffffffffffffffffffffffffffffff16848660000160019054906101000a900473ffffffffffffffffffffffffffffffffffffffff1689611476565b600084600101540361068b5760008460000160006101000a81548160ff0219169083151502179055505b81877fb323fe5bf0255380717df5b63b8283e29e3f2fd4f90e2d31deb948b96f6c152560405160405180910390a38694505050505060008060006101000a81548160ff02191690831515021790555092915050565b6060600060018054905067ffffffffffffffff81111561070357610702611d81565b5b60405190808252806020026020018201604052801561073c57816020015b610729611541565b8152602001906001900390816107215790505b50905060005b6001805490508110156108f95760006001828154811061076557610764611b8e565b5b9060005260206000209060070201905080604051806101000160405290816000820160009054906101000a900460ff161515151581526020016000820160019054906101000a900473ffffffffffffffffffffffffffffffffffffffff1673ffffffffffffffffffffffffffffffffffffffff1673ffffffffffffffffffffffffffffffffffffffff168152602001600182015481526020016002820160009054906101000a900473ffffffffffffffffffffffffffffffffffffffff1673ffffffffffffffffffffffffffffffffffffffff1673ffffffffffffffffffffffffffffffffffffffff168152602001600382015481526020016004820160009054906101000a900473ffffffffffffffffffffffffffffffffffffffff1673ffffffffffffffffffffffffffffffffffffffff1673ffffffffffffffffffffffffffffffffffffffff168152602001600582015481526020016006820154815250508383815181106108da576108d9611b8e565b5b60200260200101819052505080806108f190611db0565b915050610742565b508091505090565b60008273ffffffffffffffffffffffffffffffffffffffff166370a08231836040518263ffffffff1660e01b815260040161093c9190611df8565b602060405180830381865afa158015610959573d6000803e3d6000fd5b505050506040513d601f19601f8201168201806040525081019061097d9190611e28565b905092915050565b60006001828154811061099b5761099a611b8e565b5b9060005260206000209060070201604051806101000160405290816000820160009054906101000a900460ff161515151581526020016000820160019054906101000a900473ffffffffffffffffffffffffffffffffffffffff1673ffffffffffffffffffffffffffffffffffffffff1673ffffffffffffffffffffffffffffffffffffffff168152602001600182015481526020016002820160009054906101000a900473ffffffffffffffffffffffffffffffffffffffff1673ffffffffffffffffffffffffffffffffffffffff1673ffffffffffffffffffffffffffffffffffffffff168152602001600382015481526020016004820160009054906101000a900473ffffffffffffffffffffffffffffffffffffffff1673ffffffffffffffffffffffffffffffffffffffff1673ffffffffffffffffffffffffffffffffffffffff168152602001600582015481526020016006820154815250509050428160c0015111610b42576040517f08c379a0000000000000000000000000000000000000000000000000000000008152600401610b3990611c09565b60405180910390fd5b8060000151610b86576040517f08c379a0000000000000000000000000000000000000000000000000000000008152600401610b7d90611ea1565b60405180910390fd5b3373ffffffffffffffffffffffffffffffffffffffff16816020015173ffffffffffffffffffffffffffffffffffffffff1614610bf8576040517f08c379a0000000000000000000000000000000000000000000000000000000008152600401610bef90611f0d565b60405180910390fd5b610c0b81606001513383604001516113ae565b8060a0015173ffffffffffffffffffffffffffffffffffffffff16816060015173ffffffffffffffffffffffffffffffffffffffff16837fd9503c29bd2f45af5872b6494a40da725a9609857c0214c162bbd33b98effa4d84604001518560800151604051610c7b929190611f2d565b60405180910390a460018281548110610c9757610c96611b8e565b5b9060005260206000209060070201600080820160006101000a81549060ff02191690556000820160016101000a81549073ffffffffffffffffffffffffffffffffffffffff021916905560018201600090556002820160006101000a81549073ffffffffffffffffffffffffffffffffffffffff021916905560038201600090556004820160006101000a81549073ffffffffffffffffffffffffffffffffffffffff02191690556005820160009055600682016000905550505050565b60018181548110610d6557600080fd5b90600052602060002090600702016000915090508060000160009054906101000a900460ff16908060000160019054906101000a900473ffffffffffffffffffffffffffffffffffffffff16908060010154908060020160009054906101000a900473ffffffffffffffffffffffffffffffffffffffff16908060030154908060040160009054906101000a900473ffffffffffffffffffffffffffffffffffffffff16908060050154908060060154905088565b60008411610e5d576040517f08c379a0000000000000000000000000000000000000000000000000000000008152600401610e5490611fa2565b60405180910390fd5b610eae60018281548110610e7457610e73611b8e565b5b906000526020600020906007020160020160009054906101000a900473ffffffffffffffffffffffffffffffffffffffff16333087611476565b8360018281548110610ec357610ec2611b8e565b5b9060005260206000209060070201600101819055508260018281548110610eed57610eec611b8e565b5b906000526020600020906007020160030181905550600182610f0f9190611cab565b60018281548110610f2357610f22611b8e565b5b906000526020600020906007020160050154610f3f9190611fc2565b60018281548110610f5357610f52611b8e565b5b90600052602060002090600702016005018190555060018181548110610f7c57610f7b611b8e565b5b906000526020600020906007020160040160009054906101000a900473ffffffffffffffffffffffffffffffffffffffff1673ffffffffffffffffffffffffffffffffffffffff1660018281548110610fd857610fd7611b8e565b5b906000526020600020906007020160020160009054906101000a900473ffffffffffffffffffffffffffffffffffffffff1673ffffffffffffffffffffffffffffffffffffffff16827f2ae46dfd7f2951a7ee473be6b314d15def7650af42905145cbb715a8fe7dcdd387874260405161105493929190611ff6565b60405180910390a450505050565b60008060009054906101000a900460ff16156110b3576040517f08c379a00000000000000000000000000000000000000000000000000000000081526004016110aa90611b6e565b60405180910390fd5b60016000806101000a81548160ff02191690831515021790555060008611611110576040517f08c379a000000000000000000000000000000000000000000000000000000000815260040161110790611fa2565b60405180910390fd5b600060018361111f9190611cab565b4261112a9190611fc2565b90506111388633308a611476565b60006040518061010001604052806001151581526020013373ffffffffffffffffffffffffffffffffffffffff1681526020018981526020018873ffffffffffffffffffffffffffffffffffffffff1681526020018781526020018673ffffffffffffffffffffffffffffffffffffffff168152602001838152602001428152509050600181908060018154018082558091505060019003906000526020600020906007020160009091909190915060008201518160000160006101000a81548160ff02191690831515021790555060208201518160000160016101000a81548173ffffffffffffffffffffffffffffffffffffffff021916908373ffffffffffffffffffffffffffffffffffffffff1602179055506040820151816001015560608201518160020160006101000a81548173ffffffffffffffffffffffffffffffffffffffff021916908373ffffffffffffffffffffffffffffffffffffffff1602179055506080820151816003015560a08201518160040160006101000a81548173ffffffffffffffffffffffffffffffffffffffff021916908373ffffffffffffffffffffffffffffffffffffffff16021790555060c0820151816005015560e0820151816006015550506000600180805490506113199190611d4d565b90508573ffffffffffffffffffffffffffffffffffffffff168873ffffffffffffffffffffffffffffffffffffffff16827f32d92fad11ae342d3f02c55c1e58756834f11435b506fc3f01d1de3b57ab5f4a8c8b4260405161137d93929190611ff6565b60405180910390a480935050505060008060006101000a81548160ff02191690831515021790555095945050505050565b60008373ffffffffffffffffffffffffffffffffffffffff1663a9059cbb84846040518363ffffffff1660e01b81526004016113eb92919061202d565b6020604051808303816000875af115801561140a573d6000803e3d6000fd5b505050506040513d601f19601f8201168201806040525081019061142e9190612082565b905080611470576040517f08c379a0000000000000000000000000000000000000000000000000000000008152600401611467906120fb565b60405180910390fd5b50505050565b60008473ffffffffffffffffffffffffffffffffffffffff166323b872dd8585856040518463ffffffff1660e01b81526004016114b59392919061211b565b6020604051808303816000875af11580156114d4573d6000803e3d6000fd5b505050506040513d601f19601f820116820180604052508101906114f89190612082565b90508061153a576040517f08c379a0000000000000000000000000000000000000000000000000000000008152600401611531906121c4565b60405180910390fd5b5050505050565b604051806101000160405280600015158152602001600073ffffffffffffffffffffffffffffffffffffffff16815260200160008152602001600073ffffffffffffffffffffffffffffffffffffffff16815260200160008152602001600073ffffffffffffffffffffffffffffffffffffffff16815260200160008152602001600081525090565b600080fd5b6000819050919050565b6115e2816115cf565b81146115ed57600080fd5b50565b6000813590506115ff816115d9565b92915050565b60006020828403121561161b5761161a6115ca565b5b6000611629848285016115f0565b91505092915050565b61163b816115cf565b82525050565b60006020820190506116566000830184611632565b92915050565b60008060408385031215611673576116726115ca565b5b6000611681858286016115f0565b9250506020611692858286016115f0565b9150509250929050565b600081519050919050565b600082825260208201905092915050565b6000819050602082019050919050565b60008115159050919050565b6116dd816116c8565b82525050565b600073ffffffffffffffffffffffffffffffffffffffff82169050919050565b600061170e826116e3565b9050919050565b61171e81611703565b82525050565b61172d816115cf565b82525050565b6000819050919050565b600061175861175361174e846116e3565b611733565b6116e3565b9050919050565b600061176a8261173d565b9050919050565b600061177c8261175f565b9050919050565b61178c81611771565b82525050565b610100820160008201516117a960008501826116d4565b5060208201516117bc6020850182611715565b5060408201516117cf6040850182611724565b5060608201516117e26060850182611783565b5060808201516117f56080850182611724565b5060a082015161180860a0850182611783565b5060c082015161181b60c0850182611724565b5060e082015161182e60e0850182611724565b50505050565b60006118408383611792565b6101008301905092915050565b6000602082019050919050565b60006118658261169c565b61186f81856116a7565b935061187a836116b8565b8060005b838110156118ab5781516118928882611834565b975061189d8361184d565b92505060018101905061187e565b5085935050505092915050565b600060208201905081810360008301526118d2818461185a565b905092915050565b60006118e582611703565b9050919050565b6118f5816118da565b811461190057600080fd5b50565b600081359050611912816118ec565b92915050565b61192181611703565b811461192c57600080fd5b50565b60008135905061193e81611918565b92915050565b6000806040838503121561195b5761195a6115ca565b5b600061196985828601611903565b925050602061197a8582860161192f565b9150509250929050565b61198d816116c8565b82525050565b61199c81611703565b82525050565b6119ab81611771565b82525050565b6000610100820190506119c7600083018b611984565b6119d4602083018a611993565b6119e16040830189611632565b6119ee60608301886119a2565b6119fb6080830187611632565b611a0860a08301866119a2565b611a1560c0830185611632565b611a2260e0830184611632565b9998505050505050505050565b60008060008060808587031215611a4957611a486115ca565b5b6000611a57878288016115f0565b9450506020611a68878288016115f0565b9350506040611a79878288016115f0565b9250506060611a8a878288016115f0565b91505092959194509250565b600080600080600060a08688031215611ab257611ab16115ca565b5b6000611ac0888289016115f0565b9550506020611ad188828901611903565b9450506040611ae2888289016115f0565b9350506060611af388828901611903565b9250506080611b04888289016115f0565b9150509295509295909350565b600082825260208201905092915050565b7f4e6f2052652d656e7472616e6379000000000000000000000000000000000000600082015250565b6000611b58600e83611b11565b9150611b6382611b22565b602082019050919050565b60006020820190508181036000830152611b8781611b4b565b9050919050565b7f4e487b7100000000000000000000000000000000000000000000000000000000600052603260045260246000fd5b7f4552525f455850495245445f4f52444552000000000000000000000000000000600082015250565b6000611bf3601183611b11565b9150611bfe82611bbd565b602082019050919050565b60006020820190508181036000830152611c2281611be6565b9050919050565b600060a082019050611c3e6000830188611993565b611c4b6020830187611993565b611c586040830186611632565b611c656060830185611632565b611c726080830184611632565b9695505050505050565b7f4e487b7100000000000000000000000000000000000000000000000000000000600052601160045260246000fd5b6000611cb6826115cf565b9150611cc1836115cf565b9250828202611ccf816115cf565b91508282048414831517611ce657611ce5611c7c565b5b5092915050565b7f4e487b7100000000000000000000000000000000000000000000000000000000600052601260045260246000fd5b6000611d27826115cf565b9150611d32836115cf565b925082611d4257611d41611ced565b5b828204905092915050565b6000611d58826115cf565b9150611d63836115cf565b9250828203905081811115611d7b57611d7a611c7c565b5b92915050565b7f4e487b7100000000000000000000000000000000000000000000000000000000600052604160045260246000fd5b6000611dbb826115cf565b91507fffffffffffffffffffffffffffffffffffffffffffffffffffffffffffffffff8203611ded57611dec611c7c565b5b600182019050919050565b6000602082019050611e0d6000830184611993565b92915050565b600081519050611e22816115d9565b92915050565b600060208284031215611e3e57611e3d6115ca565b5b6000611e4c84828501611e13565b91505092915050565b7f494e4143544956455f4f52444552000000000000000000000000000000000000600082015250565b6000611e8b600e83611b11565b9150611e9682611e55565b602082019050919050565b60006020820190508181036000830152611eba81611e7e565b9050919050565b7f554e415554484f52495345445f4143434553534142494c495459000000000000600082015250565b6000611ef7601a83611b11565b9150611f0282611ec1565b602082019050919050565b60006020820190508181036000830152611f2681611eea565b9050919050565b6000604082019050611f426000830185611632565b611f4f6020830184611632565b9392505050565b7f53454c4c5f4d494e494d554d5f4f4e455f544f4b454e00000000000000000000600082015250565b6000611f8c601683611b11565b9150611f9782611f56565b602082019050919050565b60006020820190508181036000830152611fbb81611f7f565b9050919050565b6000611fcd826115cf565b9150611fd8836115cf565b9250828201905080821115611ff057611fef611c7c565b5b92915050565b600060608201905061200b6000830186611632565b6120186020830185611632565b6120256040830184611632565b949350505050565b60006040820190506120426000830185611993565b61204f6020830184611632565b9392505050565b61205f816116c8565b811461206a57600080fd5b50565b60008151905061207c81612056565b92915050565b600060208284031215612098576120976115ca565b5b60006120a68482850161206d565b91505092915050565b7f5452414e53464552207c20546f6b656e207472616e73666572204661696c6564600082015250565b60006120e5602083611b11565b91506120f0826120af565b602082019050919050565b60006020820190508181036000830152612114816120d8565b9050919050565b60006060820190506121306000830186611993565b61213d6020830185611993565b61214a6040830184611632565b949350505050565b7f5452414e534645522046524f4d207c20546f6b656e207472616e73666572466f60008201527f726d204661696c65640000000000000000000000000000000000000000000000602082015250565b60006121ae602983611b11565b91506121b982612152565b604082019050919050565b600060208201905081810360008301526121dd816121a1565b905091905056fea2646970667358221220e2717a94f80817ec0c585574ff0d0def4b8950ffb9278f683f17896165eefe6364736f6c63430008110033",
  "linkReferences": {},
  "deployedLinkReferences": {}
}